:020000040000FA
:1000000002096FE4FD7F0E71A07F1171527856EFE7
:10001000F230E204E4FD01CC7856E230E40A7D805F
:100020007F1171A0E47804F27804E2705D7856E202
:1000300030E05751877846E2547F6421702408E20B
:1000400024F7601024087013784DE27803F20874E6
:1000500001F2801478047402F2800D78047403F2C3
:10006000800631377804EFF27804E2640370047D8F
:1000700020800B7804E270047D4880027D407F116F
:1000800071A07F1171527856EFF27804E26401702A
:10009000227856E25413701B7846E2547F64217034
:1000A000067F2071188002515E7D0A7F1171A0E4E5
:1000B0007804F27804E26402701A7856E230E014B0
:1000C0007F167152AD077F2051F57D487F1171A0D9
:1000D000E47804F222E4FF785B04F27848E224FE3C
:1000E000601924E160221460302421703978017491
:1000F0000AF208747DF2900A7D80197801740AF280
:1001000008748FF27F2280237801740AF20874A1A8
:10011000F2900AA1E493FF80127801740AF2087445
:10012000B1F27F1B8005785B7403F2784DE2FEEF3D
:10013000C39E5002EFF222785B7403F27847E2B478
:100140000C00503E90014A25E07321622166218215
:1001500021662182216A216E218221722176217AF3
:10016000217E5107801C318D801851AD801411D52E
:10017000801071AC800C31CE800871B88004E478B6
:100180005BF2E4FD7F0E71A0785BE2FF22784EE225
:10019000640270397846E264027032784BE264811E
:1001A000700218E270277849E2700218E2701E7837
:1001B0005BF27D017F0E71A07847E264017006C298
:1001C000007D408004D2007D107F1171A022784E06
:1001D000E26033C37849E2940218E294005027E4C5
:1001E000785BF27849E2784E60177402F2C2007DC3
:1001F000017F0E71A07D407F1171A07D207F126173
:10020000A07401F2D20022784EE26402701978469E
:10021000E264827012784BE26481700218E2700727
:1002200030000261826191784BE2700218E2700244
:100230007191227F0671527854EFF27F02715278E9
:1002400055EFF218E230E20271647854E230E305CF
:100250007845E204F27855E230E0021103227F2073
:1002600071C2E4FF784DE2FEEFC39E50197801E2BF
:10027000FC08E22FF582E43CF583E493F5AFE5AEAC
:1002800020E7FB0F80DE227F6071527846EFF2712B
:100290007A08EFF2717A7849120373784B1203737C
:1002A000784DEFF2717A18EFF2E4FF61C2C378493A
:1002B000E2948018E294005018E4785BF27849E206
:1002C000FDE4FF71A07849E2784E7002F2227401D9
:1002D000F22275A7207D087F0171A075B3E07D0132
:1002E0007F0771A07D0C7F0B71A07D8F7F0F71A0A8
:1002F000E4F5A76164EF44C0FF71C2ED6016717A46
:100300007800E2245CF582E43400F583EFF0E20447
:10031000F21D80E7E4FF61C271C2E4FF7803E2608E
:100320001474052FF8E2F5AFE5AE20E7FB7803E2A1
:1003300014F20F80E7227D017F0E71A02000127F52
:10034000117152EF20E00A7F2171187D017F117138
:10035000A022E5AE20E7FBEF4480F5AEE5AE20E756
:10036000FBAFAF22E4784EF27804F2D2007D017F39
:100370000161A0EFF2717A18EFF2E5AE20E7FBAF72
:10038000AF22785B7401F27801740AF20874CCF23F
:1003900022785B7401F27801740AF20874CEF222BA
:1003A000E5AE20E7FB8FAEAF058FAF22784EE2645B
:1003B0000270026182719122784EE26402700271D1
:1003C0009122E5AE20E7FB8FAE22120A23E4785794
:1003D000F27858F2120A5DC2B01209FE7853EFF2B9
:1003E000784F7440F2EF24B8602B24F86031147019
:1003F0000302047B1470030204A41470030205FCBE
:1004000014700302063214700302069E1470030275
:10041000080102080E780076A575EF1202080E1288
:1004200009FEEF600575E340800375E3C01209FE25
:100430007850EFF21209FE7851EFF21209FE78526D
:10044000EFF21209FE7850E25FF5A41209FE78512E
:10045000E25FF5A51209FE7852E25FF5A61209FEE9
:100460007850E2F44FF5801209FE7851E2F44FF52E
:10047000901209FE7852E2F44FF5A0E5E35480783B
:1004800006F27850E27807F27851E27808F2785272
:10049000E27809F208E5A4F208E5A5F208E5A6F27B
:1004A000080208031209FE900161EFF01209FE90A4
:1004B000015DEFF01209FE90015CEFF01209FE9071
:1004C0000165EFF060037401F090015DE09001615F
:1004D0006009E0FF900165E0FD8004E0FF7D01120E
:1004E0000818900161E0FFFD7C00C39404748094BF
:1004F00080504890015DE060277852E2FEA80774C2
:1005000001088002C333D8FCFF4E7852F290015CA0
:10051000E06006EF42A602080EEFF452A602080EB3
:10052000900161E0FFF87401088002C333D8FCF445
:10053000FF52A67852E25FF202080EC3ED940CEC73
:1005400064809480505490015DE0602D7851E2FF0A
:10055000900161E024FCFEF87401088002C333D8E6
:10056000FCFE4F7851F290015CE06006EE42A5027D
:10057000080EEEF452A502080E7851E2FF900161D8
:10058000E024FCFEF87401088002C333D8FCF4FEBA
:100590005F7851F2EE52A502080E900161E0FFC3B0
:1005A000941474809480400302080E90015DE06012
:1005B0002A7850E2FEEF24F4FFF87401088002C3A9
:1005C00033D8FCFF4E7850F290015CE06006EF42B9
:1005D000A402080EEFF452A402080E7850E2FF9035
:1005E0000161E024F4FEF87401088002C333D8FCF2
:1005F000F4FE5F7850F2EE52A402080E1209FE904B
:100600000161EFF01209FE900165EFF060037401E3
:10061000F0900161E0FF1208DCEF60069001657464
:1006200001F0900161E0FF900165E0FD1208180201
:10063000080E1209FE900161EFF07E00C39404746D
:1006400080948050077806E5A0F28030C3EF940CC8
:10065000EE64809480500E7806E590F2900161E09F
:1006600024FCF08017C3EF9414EE64809480500C47
:100670007806E580F2900161E024F4F07806E2FF6C
:10068000900161E0FEF87401088002C333D8FC5F7A
:100690007806F2700302080E7401F202080E1209C5
:1006A000FE90015EEFF01209FE90015FEFF012097B
:1006B000FE900160EFF01209FE900162EFF0120966
:1006C000FE900163EFF01209FE900164EFF0E490F8
:1006D0000166F0900166E0FFFD3395E0FCC3ED9408
:1006E00008EC6480948040030208017E007401A835
:1006F00007088005C333CE33CED8F9FF900162E0FE
:10070000FDEF5D60407850E2FDEF5D602C9001668A
:10071000E0FE240CFFC007A8067E007401088005D7
:10072000C333CE33CED8F9FF90015EE0FDEF5D7D9F
:100730000060027D01D0078009900166E0240CFF73
:100740007D01120818900166E0F97E007401A8018D
:10075000088005C333CE33CED8F9FF900163E0FDA6
:10076000EF5D603D7851E2FDEF5D602C900166E049
:10077000FE2404FFC007A8067E007401088005C39C
:1007800033CE33CED8F9FF90015FE0FDEF5D7D0001
:1007900060027D01D0078006E92404FF7D01120874
:1007A00018900166E0F97E007401A801088005C375
:1007B00033CE33CED8F9FF900164E0FDEF5D6038B1
:1007C0007852E2FDEF5D6029900166E0FFC0077E90
:1007D000007401A807088005C333CE33CED8F9FDD5
:1007E000900160E0FBED5B7D0060027D01D0078041
:1007F00004AF017D01120818900166E004F00206C2
:10080000D37806E580F208E590F208E5A0F2784F8B
:10081000E2FF120A460203D4EFB4140040030208B8
:10082000DB900828F828287302086402086A020886
:100830007002087602087C02088202088802088E8C
:1008400002089402089A0208A00208A60208AC0254
:1008500008B20208B80208BE0208C40208CA0208A8
:10086000D00208D6ED24FF92A022ED24FF92A1220F
:10087000ED24FF92A222ED24FF92A322ED24FF9209
:100880009022ED24FF929122ED24FF929222ED24FA
:10089000FF929322ED24FF929422ED24FF92952261
:1008A000ED24FF929622ED24FF929722ED24FF92F1
:1008B0008022ED24FF928122ED24FF928222ED24FA
:1008C000FF928322ED24FF928422ED24FF92852261
:1008D000ED24FF928622ED24FF928722AD07ED33AF
:1008E00095E0FEC3EF9404EE64809480501C7E007B
:1008F0007401A805088005C333CE33CED8F9FF783C
:1009000052E2FBEF5B60657F0022EDFF3395E0FE76
:10091000C3EF940CEE648094805020ED24FCFF7EA5
:10092000007401A807088005C333CE33CED8F9FF81
:100930007851E2FBEF5B60347F0022EDFF3395E0FE
:10094000FEC3EF9414EE648094805020EF24F4FFF3
:100950007E007401A807088005C333CE33CED8F9D2
:10096000FF7850E2FDEF5D60037F00227F012212DD
:100970000A7C787FE4F6D8FD7581200209B902036C
:10098000CAE493A3F8E493A34003F68001F208DFDE
:10099000F48029E493A3F85407240CC8C333C45447
:1009A0000F4420C8834004F456800146F6DFE480FB
:1009B0000B0102040810204080900A72E47E01932B
:1009C00060BCA3FF543F30E509541FFEE493A360CD
:1009D000010ECF54C025E060A840B8E493A3FAE428
:1009E00093A3F8E493A3C8C582C8CAC583CAF0A379
:1009F000C8C582C8CAC583CADFE9DEE780BE780001
:100A0000E2FF7859E2B5070512023380F17859E226
:100A1000245CF582E43400F583E0FFE204F208E2AE
:100A200014F2227597DE7597AD43FF8075EF02755E
:100A3000A71075C130E4F5A975A90375A720F5B510
:100A400075E3C00202D27805EFF278037440F278C1
:100A500003E2600812033612023380F322E47800C6
:100A6000F27859F21209FEBF24F31209FE785AEF08
:100A7000F2228150008151008152000022120100B7
:100A80000200000040C410C9EA0001000000010992
:100A9000022200010100803209040000010300006D
:100AA00000092111010001221B00070581034000FC
:100AB000010600FF0901A101150026FF0075089538
:100AC0004009018102954009019102C00100000026
:00000001FF
